:020000040000FA
:10000000E8C80720B1020000B5020000B7020000F6
:10001000B9020000BB020000BD02000000000000A9
:10002000000000000000000000000000BF0200000F
:10003000C102000000000000C3020000532F0000B6
:10004000C702000059340000C7020000C7020000C8
:10005000C7020000C7020000C7020000C70200007C
:10006000C7020000C7020000C7020000C70200006C
:10007000C7020000C7020000C7020000C70200005C
:10008000C7020000C70200008330000035310000C5
:10009000053100006D310000C7020000C7020000FA
:1000A000C7020000C7020000C7020000C70200002C
:1000B000C7020000C7020000C7020000C70200001C
:1000C000C702000000F002F800F03EF80AA090E835
:1000D000000C82448344AAF10107DA4501D100F003
:1000E00033F8AFF2090EBAE80F0013F0010F18BF92
:1000F000FB1A43F00103184794450000C445000073
:10010000103A24BF78C878C1FAD8520724BF30C843
:1001100030C144BF04680C60704700000023002415
:1001200000250026103A28BF78C1FBD8520728BF07
:1001300030C148BF0B6070471FB59DE8030003F056
:1001400073FC1FBD10B510BD03F0F2FC1146FFF7A4
:10015000F3FF03F066F803F010FD03B4FFF7F2FFBE
:1001600003BC03F041FD00004C4810B52021C0F84D
:10017000A01100BFD0F8A0114906FBD50321C0F89B
:1001800004110122C0F80C210B23C0F88430C0F800
:100190008020AA22C0F88C205523C0F88C3000BFE4
:1001A000D0F888406401FBD5C0F88010C0F88C20DE
:1001B000C0F88C300021C0F808118022C0F8A821B6
:1001C000C0F8AC11364AC0F8C420C0F8C811D0F845
:1001D00088106FEA11618A073249D0F80C2102F0C9
:1001E000030207D092B3012A46D0022A49D0032A3B
:1001F00050D13CE02AB1012A12D0022A27D0032A8A
:1002000048D1D0F88820C2F30E02521C5300D0F817
:100210008820C2F30742521CB3FBF2F2224B0DE0DE
:10022000D0F88820C2F30E02521C5300D0F8882068
:10023000C2F30742521CB3FBF2F21C4B5A43D0F8F4
:100240000431DBB25B1CB2FBF3F222E00FE0D0F82A
:100250008820C2F30E02521C5300D0F88820C2F34B
:100260000742521CB3FBF2F24FF4FA43E6E7D0F830
:1002700004210D4BD2B209E0D0F804210B4BD2B2CD
:1002800004E0D0F804214FF4FA43D2B2521CB3FB7D
:10029000F2F20A6043F23A01016010BD00C00F4063
:1002A000DE87280400C0072000093D00001BB700BE
:1002B00008480047FEE7FEE7FEE7FEE7FEE7FEE749
:1002C000FEE7FEE7FEE7FEE703480449044A054B64
:1002D00070470000C5000000E8C20720E8C80720FA
:1002E000E8C40720E8C40720704770477047000043
:1002F0000048704790C2072070477047FFFFFFFF1C
:1003000000F0FE00022800D202205E49086170471A
:100310005D48416941F48031416170475B4B00B5F4
:1003200053F8C40F40F4001043F86C0B56480168B2
:1003300041F480310160564A506820F0030050605B
:10034000FFF7E6FF106820F040401060106840F0B2
:1003500000401060506820F03C005060506840F051
:1003600028005060D86F20F44060D867D86F40F400
:100370008060D867434A0720106002205060B42094
:10038000FFF7BEFFD068C006FCD400E09068D068DC
:100390004007FBD400BD3B49002048603C48016851
:1003A00021F040410160416821F03C014160374843
:1003B00050F8C41F21F400110160704732484169B0
:1003C00021F480314161704700F054B8FF2000F003
:1003D00051B810B5FFF79CFFBDE81040FF2000F0BA
:1003E00049B8F0B54C08082901D2234600E008239B
:1003F000244A116841F00F01116019004FF6FF7592
:1004000002D09560491EFCD1E61AD3685B07FCD583
:1004100093688E4200D995601F0A00F8017B491C41
:1004200000F8013BA142F0D3106820F008001060F2
:10043000F0BD144910B50A6842F00F020A600022AC
:10044000CB689B07FCD510F8013B1C0210F8013B60
:1004500023438B60521CFF2AF2D9C868C006FCD423
:1004600000E08868C8684007FBD4086820F00800EE
:10047000086010BD03498860C868C006FCD488685D
:10048000C0B270470080084000C0092000C00F4083
:1004900000C0024070B50D46064644F6206400BF19
:1004A000FFF794FFFF2803D0FE2804D0002070BD82
:1004B000641EF5D2FAE729463046FFF792FFFFF7B0
:1004C00085FFFFF783FF012070BD70B504460D4620
:1004D000000607D504F07F0400217720FFF7F5FF21
:1004E000012833D8FFF714FFFFF768FF00F01FFA69
:1004F00000284FF0FF0029D0FFF766FF2046FFF7E6
:1005000063FF280EFFF760FFC5F30740FFF75CFFAE
:10051000C5F30720FFF758FFE8B2FFF755FF0120AA
:10052000402C02D0482C02D002E0952000E0872029
:10053000FFF74AFF4C2C01D1FFF748FF5FF00A0498
:10054000FFF744FF010601D5641EF9D170BD7FB5E8
:100550000446002631467A20FFF7B7FF002874D101
:100560005FF00005FFF732FF61196D1CEDB20875F1
:10057000042DF7D300214A20FFF7A7FF002864D1FC
:10058000102104F11800FFF785FF00285DD000213D
:100590004920FFF79AFF002857D1102104F12800C5
:1005A000FFF778FF00287DD04FF40070E06094F8EA
:1005B00028100120B0EB911F09D194F8302094F855
:1005C000311000EB02200844000480091DE094F87B
:1005D0002D0094F8321000F00F0000EBD11094F8C9
:1005E000311094F82F2001F0030100EB410194F841
:1005F0003000800900EB820094F82E2002F0030204
:1006000000EB8220401CC91F8840A060FC4D4002C6
:100610006060E8784FF00001400717D5CD20FFF764
:1006200054FF90B9FFF7D2FE10216846FFF732FF62
:1006300058B13025FFF7CAFE6D1E15F0FF05F9D140
:100640009DF80A00010910201AE02BE04920FFF76D
:100650003CFF38BB10216846FFF71CFF10B3E87859
:10066000800710D59DF80A009DF80B108006400EFB
:1006700000EBD1109DF80D10FF2202EB9111401CF0
:10068000884020610DE094F8320094F8332081070F
:10069000C90EC0F3840001EB5211401C491C4143B8
:1006A00021610126FFF795FE04B0304670BD2DE9AB
:1006B000F8434FF00008FFF731FE0024FF20FFF75A
:1006C00083FE641C502CF9D3002529464020FFF7F7
:1006D000FCFE012855D14CF250344FF4D57148201E
:1006E000FFF7F3FE01284CD100266F46FFF76EFEA0
:1006F000B855761C042EF9D39DF80200012803D1C9
:100700009DF80300AA280BD00021E920FFF7DDFEA9
:10071000012823D80225E92622E0641E03D209E03D
:100720004FF08046641E3146E920FFF7CEFE0028D8
:10073000F3D134B300217A20FFF7C7FE08BB0024B1
:10074000FFF744FE3855641C042CF9D39DF80000D3
:10075000400601D50C2514E0042512E001254126B0
:10076000641E00213046FFF7B0FE10B1641EF8D2BF
:1007700000E02CB14FF400715020FFF7A6FE00B14D
:1007800000259F48C570FFF724FE2DB14FF00108EA
:100790000420FFF7B5FD05E0FFF710FE00F0C7F8F5
:1007A000FFF7F9FD4046BDE8F88310B508B1012018
:1007B00010BDFFF77CFF924C38B19248FFF7C7FE9F
:1007C00018B1207820F001002070207810BD70B59D
:1007D000154608B1042070BD894B1878C00701D0B8
:1007E000032070BD012487480F2941D2DFE801F0C2
:1007F000080B0D10404040404040131620293200A5
:1008000000F095F831E0806803E0808928802DE0D1
:10081000006928602AE0D878107027E0002142188B
:1008200092F828206A54491CC9B21029F7D31DE058
:1008300000214218127E6A54491CC9B21029F8D30B
:1008400014E000214218127D6A54491CC9B20429DF
:10085000F8D30BE00021CD20FFF737FE48B9FFF7B2
:10086000B5FD40212846FFF715FE10B1002400E039
:100870000424FFF7AEFD204670BD10B5144630B914
:100880002BB15F480078C00703D0032010BD0420BF
:1008900010BD1A46204600F059F808B1002010BDDE
:1008A000012010BD08B101207047554800787047FD
:1008B0005349487808B1401E48708878002801D014
:1008C000401E8870704770B505460C460846FFF715
:1008D0007BFDFD2C14D02846FFF7ABFDFF20FFF772
:1008E00073FDFF20FFF770FDFFF770FD00F01F00A4
:1008F000052801D0002070BD00F019F80028FAD0BA
:10090000012070BD10B5144630B92BB13C480078B9
:10091000C00703D0032010BD042010BD1A46204696
:1009200000F049F808B1002010BD012010BD10B53D
:10093000354CFF20FFF748FDFFF748FDFF2803D0A7
:100940002046641EF8D210BD012010BD70B50D46C2
:100950002B491446C978090700D440024FF40076A9
:10096000012C014604D05220FFF7AFFD60B118E022
:100970005120FFF7AAFDC0B931462846FFF78AFD8E
:1009800098B1FFF726FD14E031462846FFF782FDB7
:1009900018B1641E05F50075F6D100214C20FFF753
:1009A00094FDFFF716FD24B101E0FFF712FD0020D2
:1009B00070BD012070BD70B5054611480E46144645
:1009C000C078010700D46D02012C0CD010F0060F86
:1009D00003D01146D720FFF778FD29465920FFF7AD
:1009E00074FD98B120E029465820FFF76EFDF8B954
:1009F000FE213046FFF767FFD0B1FFF7EAFC1BE0AE
:100A000004C0072050C00720801A0600FC21304691
:100A1000FFF759FF18B1641E06F50076F6D1FD21E7
:100A20000020FFF750FF18B1FFF7D3FC24B101E01D
:100A3000FFF7CFFC002070BD012070BD2C4911F8DC
:100A4000202F02700A7942700A7A82700A7BC27083
:100A50000A7C02718A8AC2800A7E0272898B418175
:100A60007047EBE72248017A41F0010101727047BB
:100A70001F49027801F8202F42780A7182780A72A1
:100A8000C2780A7302790A74C2888A82027A0A7664
:100A90004089888370471648017A21F0010101726C
:100AA000704700B50246FFF7F6FF1046FFF7E0FF7C
:100AB0005DF804EBD6E70F4850F8C41F41F400710D
:100AC00001600B4890F85C10C90605D590F85C10E1
:100AD00041F0100180F85C10002101740173017273
:100AE00070470348017A41F002010172704700002B
:100AF0000040024000C00F402DE9F041056B0F4659
:100B00000446BD422BD0217904F13408D9B1607874
:100B100001232A464146FFF7F5FEE0B90020207187
:100B2000E169606A0844A8420DD9E67809E0E06905
:100B30000123054460782A464146FFF7E3FE761E0E
:100B4000F6B2012EF3D857B1607801233A464146F8
:100B5000FFF793FE10B10120BDE8F081276300206C
:100B6000FAE72DE9F04104460021FFF7C5FF050033
:100B700050D12078032846D16079E8B3002604F1EB
:100B800034004FF4007231460746266302F027F91D
:100B9000552084F83202AA2084F83302522084F8C7
:100BA000340084F83500612084F83600412184F84F
:100BB0003710722284F8182284F8192284F81A1245
:100BC00084F81B02206984F81C02010A84F81D12B3
:100BD000010C84F81E12000E84F81F02E06884F8ED
:100BE0002002010A84F82112010C84F82212000E5E
:100BF00084F82302607800E005E001233946626949
:100C0000FFF780FE6671002260781146FFF7DFFD76
:100C100000B1012528469FE72DE9F0410C46054625
:100C2000022902D3286AA04201D8012094E728783B
:100C30006F6A012804D0022824D0032833D12CE085
:100C400004EB540607EB56212846FFF755FF50BB2F
:100C5000C6F308002844761C90F8348007EB562130
:100C60002846FFF749FFF0B9C6F30800284490F87A
:100C7000341048EA0120E10701D000096CE7C0F315
:100C80000B0069E707EB14212846FFF735FF50B941
:100C9000E0B205EB4000808E5EE707EBD4112846FA
:100CA000FFF72AFF10B14FF0FF3055E74FF4FE7009
:100CB00000EA8400284490F83410D0F8350041EA66
:100CC000002020F0704047E72DE9F04716460C461B
:100CD0000546022902D3286AA04202D80220BDE8B4
:100CE000F08729786F6A06F0FF094FF0010A0129A1
:100CF00009D0C6F30728022936D0032943D00220A1
:100D000085F804A0EBE704EB540807EB58212846CC
:100D1000FFF7F2FE0028F3D1C8F30800284434306E
:100D2000E10703D0017869F31F1100E0314601703B
:100D300008F1010885F804A007EB58212846FFF7C1
:100D4000DBFE0028DCD1C8F3080129443431E20776
:100D500002D0C6F3071205E00A78C6F3032302F0B7
:100D6000F0021A430A70CBE707EB14212846FFF77D
:100D7000C3FE0028C4D1E1B205EB410181F83490F3
:100D800081F83580BCE707EBD4112846FFF7B4FEA5
:100D90000028B5D14FF4FE7101EA84012944320CD8
:100DA00001F8349F81F801808A70320ECA70A7E77B
:100DB0002DE9F0410E460746022918D3386AB042A1
:100DC00015D900254FF001081DE031463846FFF7E0
:100DD00023FF04001AD0012C09D0601C09D0002286
:100DE00031463846FFF770FF05000FD103E00225BA
:100DF0000CE001250AE03869411C03D0401C386131
:100E000087F805802646386AB042DED82846A3E631
:100E10002DE9F041076A5FEA0108064607D041461E
:100E20003046FFF7F9FE022807D2012094E6F56864
:100E30000DB1BD4204D3012502E0B842F6D34546C8
:100E40002C46641CBC4202D30224022D0AD3214644
:100E50003046FFF7E1FE38B1411CE7D00128E5D06C
:100E6000AC42EED1002077E66FF07042214630466A
:100E7000FFF72AFF4FF0FF3540B9B8F1000007D067
:100E8000014622463046FFF71FFF08B1284663E6B9
:100E9000F4603069411C03D0401E30610120707144
:100EA000204659E6026A891E921E8A4201D8002015
:100EB0007047C26A807801FB0020704770B50D460C
:100EC000C1808168044601291ED02068026A8A42D6
:100ED0001AD921B90278032A04D1816A11B1807824
:100EE000060117E0E1600189A9420DD9806A17E087
:100EF0002068FFF791FE0146401C07D0022903D36A
:100F00002068006A884203D8022070BD012070BDAD
:100F1000A81B85B2B542EBD2E1602068FFF7C2FFA3
:100F200000EB1510206105F00F013422206802EB60
:100F3000411108446061002070BD2DE9F041044674
:100F4000C0880F46401C0604360C2DD0206958B3CB
:100F500031075DD1401C2061E168206829B18278A9
:100F6000521E12EA161F04D052E00089B0421BD96B
:100F70004EE0FFF751FE0546012819D9681C32D012
:100F80002068016AA9423DD877B1E168FFF740FFC8
:100F900005000BD0012D0BD0681C24D00021206847
:100FA000FFF7AAFDF8B905E00420D5E50720D3E551
:100FB0000220D1E520684FF400720021343001F0A6
:100FC0000EFF29462068FFF76DFF216800274FF0CC
:100FD000010808630FE000BF80F80480002120684A
:100FE000FFF78AFD08B10120B6E52068016B491CB6
:100FF0007F1CFFB2016320688178B942ECD8016B95
:10100000C91B0163E56029462068FFF74BFF20619B
:10101000E68006F00F013422206802EB41110844FB
:101020006061002098E57CB516461C4605460B22FB
:1010300001F0CDFE052C09D9600836F8021B00EB43
:10104000C430084484B230880028F5D107210A2230
:101050004FEA0D00B4FBF2F302FB1343B4FBF2F4CE
:1010600030334354491E002CF4D17E2242540022D6
:1010700000E0521C8A4202DAAB5C202BF9D108292D
:1010800002DA435C491C00E02023AB54521C082ABE
:10109000F5DB7CBD2DE9F84F05460021FFF70EFF7B
:1010A000002879D14FF0FF0BD94629692868FFF74E
:1010B00023FD06000ED16C69207850B1E17AE52855
:1010C00001F03F0103D00A0705D50F2909D0FF2001
:1010D0004DE0042672E00F2903D0B9F1000F4BD088
:1010E0004FE0E96981B3420606D594F80DB000F0EF
:1010F000BF00EA8881462A84484536D1627B5A453A
:1011000033D100912078A04600F0BF00401E00EBD4
:1011100080010027DFF89CA601EBC006012400BF78
:101120001AF8071001EB0800008874B101F09EFE68
:101130000446FF2E19DA009830F81600761C01F0EC
:1011400095FEA04211D104E02FE0A0F57F41FF39C8
:101150000BD17F1C0D2FE3DB98F80000400608D56B
:101160003CB1009830F8160018B1FF20C0B281469B
:101170001DE0A9F10100F9E7204601F040FE5845C5
:101180001CD04FF6FF702884A8694FF0FF09C17A80
:10119000C9070CD10A2102E011E0491E06D314F858
:1011A000013B10F8012B9A1AF7D000E032B1002170
:1011B0002846FFF7C2FE06003FF477AF3046BDE891
:1011C000F88F2DE9F05FFF240546274604264FF6E9
:1011D000FF784FF0000960E02868FFF78DFC0600FB
:1011E0005FD16869017851B1C27AE52902F03F0206
:1011F00003D0130705D50F2A07D0FF243FE00426AC
:101200004FE00F2A01D0BCBB40E04A0605D5477B22
:1012100001F0BF01EA880C462A84A1422DD1417B0E
:10122000B9422AD10178DFF88CA501F03F01491EAF
:1012300001EB810202EBC1010022D5F81CB00123B1
:10124000C44600BF1AF802600644368833B1FF294D
:1012500013DA2BF811603346491C01E066450CD1C6
:10126000521C0D2AEEDB0078400603D5FF2904DA74
:101270002BF81190641E01E00CE0FF24E4B2002181
:101280002846FFF75AFE060007D00AE001F0B7FD36
:10129000B84208D0A5F8208005E0296900299BD133
:1012A0000EB1C5F810903046BDE8F09F2DE9FF5F04
:1012B00004460C22D4E906763946684601F087FDDB
:1012C0009DF80B00810602D5062004B0ECE7C007AC
:1012D00019D00020F8720125E0612B46324669469C
:1012E0003846FFF7A0FE2046FFF7D4FE18B96D1C64
:1012F000ADB2642DF1D3642D0BD00428E5D19DF857
:101300000B00F872E6619DF80B0080070FD50020F6
:1013100003E00720D9E7401C80B236F810100029FE
:10132000F9D10D211930B0FBF1F087B200E00127AF
:1013300000212046FFF7C2FD0028C6D10026B04696
:1013400021692068FFF7D8FB05000BD160690078A0
:10135000E52808D038B1002601212046FFF7EDFD31
:101360000500EDD077E00EB9B4F80680761CB6B271
:10137000BE42F1D1012F55D941462046FFF79EFDCF
:10138000050068D1A06901F03AFD7F1E1FFA87FBB6
:10139000039021692068FFF7AFFB05005BD161690D
:1013A000D4F81C90039848730F20C872002008736B
:1013B00088760BF0FF0AC876AAF1010000EB8002E4
:1013C00002EBC00500234FF6FF7EFA4E4A1C01E0F7
:1013D000604503D039F81500F4466D1CF75CC8551C
:1013E00016F80380070A08F8027000B960465B1C13
:1013F0000D2BEDDB704502D039F8150008B94AF025
:10140000400A81F800A021680120087100212046CF
:10141000FFF793FD05001ED1ABF1010080B25FEA3A
:10142000000BB6D121692068FFF766FB050012D1D9
:10143000666920220021304601F0D1FC0B223046A3
:10144000A16901F0C4FCA069C07A00F018003073F3
:10145000216801200871284637E72DE9F041018C09
:101460000446C588A1F57F40FF3800D129462046B3
:10147000FFF724FD002816D1E52601272169206801
:10148000FFF73AFB60B961690E7021680F71E1885E
:10149000A94208D200212046FFF74FFD0028EDD0D9
:1014A000042800D102200EE42DE9F84F00240E6834
:1014B000C769894680462546705D6D1C202817D374
:1014C0002F2815D05C2813D0FF2C4FDA012101F012
:1014D000B3FC5FEA000A49D0BAF1800F04D201469A
:1014E000B5A001F084FCE8BB27F814A0641CE3E776
:1014F0007219C9F80020202801D2042500E0002537
:101500000021012C04D0022C2ED178882E2816D14F
:1015100038882E2813D127F814100020A04201DAB1
:101520002E2200E02022D8F818100A54401C0B2864
:10153000F4DBD8F8181045F020020A54BDE007EBA0
:10154000440030F8020C20280DD02E280BD04CB1CE
:1015500027F814100B222021D8F8180001F03FFCC6
:10156000002606E002E0641E002CE8D1062026E6F4
:10157000761C37F816002028FAD02E28F8D01EB195
:1015800045F0030500E0641E2CB107EB440030F881
:10159000020C2E28F7D1002082464FF0080B009055
:1015A00037F8160006F101065FEA000924D0B9F108
:1015B000200F04D0B9F12E0F04D1A64202D045F07D
:1015C0000305EDE70098584501DAA6421AD1BBF1B0
:1015D0000B0F0FD0A64201D045F003050CDC4FF0F5
:1015E000080000904FEA8A6026464FF00B0B4FEA46
:1015F000106AD5E745F00305D8F818000178E52909
:1016000039D03AE04846B9F1800F11D3002101F0FA
:1016100013FC5FEA000906D066490D3101EB0900B1
:1016200010F8800C814645F00205B9F1000F04D096
:10163000014664A001F0DBFB20B14FF05F0945F0EB
:1016400003050FE0A9F14100192802D84AF0020A67
:1016500008E0A9F16100192804D841304AF0010AD4
:101660001FFA80F9D8F81820009902F80190009824
:10167000401C009094E705210170BBF1080F03D1D5
:101680004FEA8A604FEA106ACAF38100032803D048
:101690006FEA0A01890701D145F00205A90709D4BB
:1016A0000AF00301012901D145F01005012801D1FB
:1016B00045F00805D8F81800C57200207FE52DE92F
:1016C000F0410D4601F109040169C1B341690023EC
:1016D0000E7BCA5C202A0FD0052A00D1E5223707ED
:1016E00005D5A2F14107192F01D82032D2B25B1CD7
:1016F00004F8012B082BECDB0A7A202A13D02E22C7
:1017000004F8012B0823CA5C202A0CD0F70605D563
:10171000A2F14107192F01D82032D2B25B1C04F884
:10172000012B0B2BEFDBCA7A2A720A7FD1F81D300E
:1017300042EA03222A600A8BAA80C98AE9804FF014
:10174000000884F80080AE69002E1BD001690024D7
:10175000B1B1018CA1F57F42FF3A11D0C7690BE00E
:10176000002101F069FB18B1E969491EA14201DCC1
:10177000002405E03055641C37F8020B0028EFD137
:1017800006F8048011E473B5044601980025017839
:101790002F291BD05C2919D020688069A06001988E
:1017A0000078202816D200212046FFF787FB6561CC
:1017B0007CBD0000F8400000222A3A3C3E3F7C7F7E
:1017C000000000002B2C3B5B3D5D0000401C0190A5
:1017D000A560E4E701A92046FFF766FE0028E7D1EF
:1017E0002046FFF757FCA169C97A01F0040128B12E
:1017F0000428DDD10029DBD10520D9E70029D7D184
:101800006069C17AC906F7D5818A408B61F31F40B0
:10181000A060DFE710B504460A464078012304F1D2
:101820003401FFF72AF808B1032010BDB4F83202E2
:10183000A0F52A41553901D0022010BD94F86A0064
:10184000B4F86B1040EA0121F948B0EB012F08D041
:1018500094F88610B4F8872041EA0221B0EB012FFA
:1018600001D1002010BD012010BD2DE9F0470B462D
:1018700001681646DFF8BC930A78303A092A02D884
:101880004C783A2C05D099F800202AB10B20BDE8FD
:10189000F087891C0160F8E7E648001D04681C60B9
:1018A00084B1207820B16078FEF7FCFFC1070BD02F
:1018B0000025257028466570FEF777FFC10708D020
:1018C0000320E4E70C20E2E70EB1400704D4002037
:1018D000DDE71EB1400701D50A20D8E700210F46F9
:1018E0002046FFF797FF01280CD104F5F970017924
:1018F00099B1017AD0F8090041EA0027394620461B
:10190000FFF788FF032801D038B901E00120BEE7C6
:10191000B4F83F00B0F5007F01D00D20B7E7B4F870
:101920004A1029B994F85800D4F8591040EA012116
:10193000E16194F84400E070B4F842C048430CEB15
:101940000701616294F84160A670B4F845302381C4
:10195000B4F847202AB994F85420D4F8558042EAC4
:101960000822A2EB0C02121AA2EB1312B2FBF6F23F
:10197000921C012640F6F77C2262624500D30226C3
:101980004FF6F77C624501D303260FE0032E0DD0FE
:1019900011EB000200EB13100844C4E90A204FF0D9
:1019A000FF3020612571032E07D038E094F86020C5
:1019B000D4F861C042EA0C22ECE76571B4F8640027
:1019C0000123C2196261607804F13401FEF755FF0A
:1019D00028BBB4F83202A0F52A4155391FD194F83A
:1019E0003400D4F8351040EA01209349884216D1DA
:1019F00094F81802D4F8191240EA01208F4988425D
:101A00000DD194F82002D4F8211240EA0120E060C0
:101A100094F81C02D4F81D1240EA012020612670BF
:101A20002563A561B9F80210491CA9F80210E180EC
:101A30004DE708B10B2070477E4A121D0023106845
:101A400000B1037001B10B700020116070472DE9E7
:101A5000F7478DB04FF00008064602F01F05C0F8AA
:101A60000080774C05F01E0269460EA8FFF7FDFEC8
:101A700000281CD109A8CDE9060468460E99FFF795
:101A800082FE15F01C0F59D04FF0010960B10428F7
:101A90000DD16846FFF70AFC002808D145F008057B
:101AA000059C280737D458E0680702D5082010B0F5
:101AB000EDE6059CF4B3E07A10F0110F4BD1280746
:101AC0004BD5A08A678B84F8148084F8158084F83D
:101AD0001A8084F81B8084F81C8084F81D8084F8A8
:101AE0001E8084F81F80009960F31F4781F80490DE
:101AF0000098D0F830A047B139460098FFF758F960
:101B00000028D4D100987F1EC76051460098FEF788
:101B1000F3FF0028CBD184F80B8001F04DFAA073BD
:101B2000010AE173010C2174000E6074009981F8C0
:101B3000049000E00FE045F020050EE00028B6D14B
:101B4000059C14B1E07AC10601D50420AFE7A907CE
:101B500003D5C00701D00720A9E70098006BF0610A
:101B600005983062B571A18A608B61F31F403061C6
:101B7000207FD4F81D1040EA0120C6E90280FF2131
:101B8000F171C6F81880009830600098C088B08065
:101B900000208CE72DE9F05F4FF000090F46C3F8F5
:101BA00000900446818898461546006801F034F993
:101BB000002803D1A079010602D50220BDE8F09FDC
:101BC000C00708D0D4E90210401A04F1240A854263
:101BD00000D9054692E00720F0E7A168C80575D155
:101BE0002068E27983789A420AD359B36169FFF792
:101BF00013F8012829D9411C5DD0606184F8079051
:101C000061692068FFF74EF9F8B1E1796E0A01EBDE
:101C1000000B33D022688B199078834200D9461A82
:101C20005078F3B25A463946FEF727FEF0BB11E072
:101C30000046415408C0072052526141727241610E
:101C400088C00720FFE72069D3E7A07940F0800033
:101C5000A071B2E7A07940060BD5A169A1EB0B00FA
:101C6000B04206D207EB40204FF40072514601F01B
:101C7000AEF8E0793044E071760235E0A0794006B4
:101C80000BD52068012351464078A269FEF73AFE41
:101C900060B9A07920F04000A071A169594510D029
:101CA000206801235A464078514601E003E00DE0E8
:101CB000FEF7E3FD28B1A07940F08000A07101207B
:101CC0007CE7C4F818B0E079401CE0712089C0F3CB
:101CD0000800C0F50076AE4200D92E460119324602
:101CE0003846243101F073F8A06837443044A060CE
:101CF000D8F800008119AD1BC8F80010002D7FF442
:101D00006CAF00205AE72DE9F05F4FF000090F4655
:101D1000C3F800900446818898461646006801F092
:101D20007BF8002803D1A079010601D5022045E700
:101D3000800701D4072041E7E16804F1240A8A19E9
:101D40008A4278D39AE0A068C1057BD12268E37902
:101D500091788B420DD3C0B110466169FFF758F8F6
:101D6000002868D0012835D0411C5ED0606184F81D
:101D70000790A079400615D5206801235146407888
:101D8000A269FEF7BFFDE8BB08E020690028E9D1A1
:101D900000211046FFF73CF82061E1E7A07920F030
:101DA0004000A07161692068FFF77CF890B1E1798B
:101DB000750A01EB000B29D020684B1982789342F9
:101DC00000D9551AEBB240785A463946FEF79AFDCB
:101DD000C0B904E0A07940F08000A071A6E7A16935
:101DE000A1EB0B00A8420AD207EB40214FF400728E
:101DF000504600F0ECFFA07920F04000A071E0799F
:101E0000284400E011E0E0716D022DE0A169594520
:101E100013D0D4E9020188420FD2206801235A4628
:101E200040785146FEF729FD38B1A07940F0800096
:101E3000A0710120C2E624E004E0C4F818B0E07903
:101E4000401CE0712089C0F30800C0F50075B54260
:101E500000D9354620442A463946243000F0B7FFE1
:101E6000A07940F04000A071A0682F442844A060F1
:101E7000D8F800004119761BC8F80010002E7FF436
:101E800062AFD4E90201884200D9E060A07940F055
:101E90002000A071002091E670B50446818800689A
:101EA00000F0BAFF00280ED1A1798A060BD54806AA
:101EB0000ED52068012304F124014078A269FEF7C1
:101EC00021FD08B1012070BDA07920F04000A07173
:101ED000E1692068FEF710FE0028F4D1256AE87A4F
:101EE00040F02000E872207B2877A089000A6877FC
:101EF000E068000CA877E068000EE877207CA87600
:101F0000208A000AE8762069000C28752069000EF6
:101F1000687501F051F8A875010AE975010C297678
:101F2000000E6876A07920F02000A07121680120C1
:101F300008712068BDE87040FEF713BE10B5044676
:101F4000FFF7AAFF002801D10021216010BD08B1D0
:101F50000B207047FE4908700020704711B58DB006
:101F6000FC4C002269460DA8FFF77FFC00280AD12F
:101F700009A8CDE9060468460D99FFF704FC20B1D5
:101F8000042800D105200EB010BD059931B1CA7AE0
:101F9000D206F7D58A8A498B62F31F41009A916174
:101FA000F1E72DE9F0410D4604468188006800F014
:101FB00033FF5FEA000803D1A179080602D50220A9
:101FC000BDE8F081E068A84202D2890700D4054646
:101FD0000027A068FF21A760E171FDB12268917818
:101FE0004E0268B1691E401EB1FBF6F1B0FBF6F37C
:101FF000994205D3711E8843A0602D1A61690CE0D7
:10200000216949B900211046FEF702FF0146012867
:1020100043D0481C52D021616161D1B92AE0A07936
:102020008007206805D5FEF7F3FE010004D1354690
:1020300011E0FEF7F1FD0146481C3FD001292CD9E3
:102040002068006A884228D96161A068AD1B3044CD
:10205000A060B542E3D8A0682844A060680AE07197
:10206000E80507D02068FEF71DFFB0B1E1790F1831
:10207000491CE1712089C00527D0A269BA4224D049
:10208000A07904F1240140060D460FD520680123F4
:102090004078FEF737FC88B904E0A07940F0800072
:1020A000A0718CE7A07920F04000A0712068012386
:1020B0003A4640782946FEF7E0FB28B1A07940F087
:1020C0008000A07101207BE7A761D4E9020188426A
:1020D00004D9E060A07940F02000A07140466FE78D
:1020E00033B583B0044601469A4D002204A8FFF799
:1020F000BCFB00281BD16846C4E9060520460499AC
:10210000FFF741FB80B9606938B1C17AC9060DD5C6
:10211000818A408B61F31F40A06020680021C08845
:10212000A0802046FEF7CAFE042800D1052005B095
:1021300030BDFEB50E4604468188864D006800F02D
:102140006BFE002817D16846C4E90605A6B12046F3
:10215000FFF737F80025042813D000280BD13146AB
:102160002046FFF7ACFA00212046FEF7E6FE0428E1
:1021700001D100202561FEBD00212046FEF79EFE14
:10218000FEBD2561EBE773B58CB00E46714D0022A4
:1021900069460CA8FFF769FB040010D109A8CDE936
:1021A000060568460C99FFF7EEFA040007D105987A
:1021B00020B131466846FFF782FA00E006240EB0EF
:1021C000204670BD2DE9F74314468946002221467A
:1021D0006846FFF74AFB00281CD12068076A01699E
:1021E000BA1E914202D8C9F800104AE090F8008067
:1021F0000025B8F1010F01D0466A17E002263146EA
:102200002068FEF709FD411C03D0012804D028B145
:1022100005E00120BDE8FE830220FBE76D1C20687D
:10222000761C006A8642EAD321E051B93146761C19
:102230002068FEF761FC0028ECD120684FF40071A3
:102240003430B8F1020F07D00278D0F8013042EAFA
:102250000322120106D006E0028802B96D1C801C20
:10226000891E02E06D1C001D091F7F1EDDD1206844
:10227000B8F1030F056102D1216801204871C9F846
:1022800000500020C6E770B504468188006800F061
:10229000C3FD050003D1A179080601D5022070BD58
:1022A000880701D4072070BDD4E90202824230D9E8
:1022B00041F02001E060A17150B161692068FEF732
:1022C000ABFC0646401C0BD0012E0BD065B11CE0C8
:1022D00021692068FEF76CFD05460020206113E0AF
:1022E000012512E0022510E02068016AB14210D9F0
:1022F0006FF070426169FEF7E7FC050005D13146D9
:102300002068FEF755FD05461DB1A07940F080001C
:10231000A071284670BD11B595B00E4C01226946DA
:1023200015A8FFF7A2FA002817D112A8CDE90604D4
:1023300068461599FFF727FA00280ED10698C07A4B
:10234000800609D4059838B1C17ACA0733D106E0AE
:1023500008C0072088C00720062016B010BD828A5A
:10236000448BC80662F31F4415D5022C01D202200B
:10237000F3E72422694609A800F029FD022109A8F3
:102380000B94FEF79BFD0028E7D109A8FEF719FF83
:1023900088B10428E1D16846FFF75FF80028DCD156
:1023A0002CB121460098FEF703FD0028D5D10098F6
:1023B000FEF7D7FBD1E70720CFE72DE9F14F90B02B
:1023C000FE4C0122694610A8FFF74FFA00280ED1F3
:1023D0000DA8CDE9060468461099FFF7D4F948B175
:1023E000042804D10698C07A800605D5062011B0CD
:1023F000BDE8F08F0820FAE700210098FEF708FDFD
:1024000005004DD0012D4DD0681C4DD00021009805
:10241000FEF772FB0028EAD129460098FEF742FD3C
:10242000009C064634344FF400720021204600F030
:10243000D6FC0B222021204600F0D1FC2E2727704D
:102440001020E07200F0B8FDC1B20C91A175C0F38C
:1024500007210B91E175C0F307410A912176000E27
:102460000990607605F0FF0B84F81AB0C5F3072ACF
:1024700084F81BA0C5F3074984F814904FEA156847
:1024800084F815802022214604F1200000F09FFCF2
:1024900084F82170009902980978032906D00AE08F
:1024A0000720A4E70220A2E70120A0E70099896A9B
:1024B000814200D1002084F83A00010A84F83B10E0
:1024C000010C000E84F8341084F83500002713E066
:1024D0000098066300990120761C0871002100987D
:1024E000FEF70AFB002882D14FF40072002120463B
:1024F00000F075FC7F1CFFB200988078B842E7D8E6
:102500006846FEF7D3FE040004D029460098FEF783
:102510004FFC19E005981021C1720C9981750B9937
:10252000C1750A9901760999417680F81AB080F848
:102530001BA080F8149080F8158000990120087184
:102540000098FEF70EFB0446204650E777B58DB0A5
:1025500015460C46994E012269460DA8FFF785F9EC
:1025600000281BD109A8CDE9060668460D99FFF79A
:102570000AF9002812D10698C07A800610D405986E
:1025800070B105F02701C27A0C408A431443C4722B
:102590000099012008710098FEF7E3FA10B070BDB1
:1025A0000620FBE733B58DB00C46844D0122694609
:1025B0000DA8FFF75AF900281ED109A8CDE9060594
:1025C00068460D99FFF7DFF8002815D10698C07A04
:1025D000800613D4059888B1A1798175E188090A2C
:1025E000C17521790176A188090A417600990120F7
:1025F00008710098FEF7B5FA0FB030BD0620FBE772
:1026000033B50C469BB06D4918A8CDE915010122E0
:102610000FA91BA8FFF729F900280CD10F980090EB
:102620000FA81B99FFF7AFF8002804D11598C07ABE
:10263000800602D506201DB030BD1498E0B300F12D
:102640000B01152209A800F0C2FB24220FA968463D
:1026500000F0BDFB21466846FFF795F868B30428F3
:10266000E9D16846FEF722FE0028E4D1059C13223A
:102670000DF1260104F10D0000F0A9FB9DF82400E6
:10268000012540F02000E0720F980571E07AC00645
:102690002FD5A18A608B01430098FEF703FC01004F
:1026A00010D00098FEF728FA009954310028C2D1C2
:1026B00048782E2808D01CE000E001E00420BAE7AA
:1026C0000820B8E70220B6E700980078032806D172
:1026D000009A0298926A904201D1002000E002988C
:1026E0008876020ACA76020C0A75000E48750098B0
:1026F00005710FA8FEF7B1FE00289CD10F98FEF7D8
:1027000030FA98E72DE9F74F8EB015460E988B46B4
:1027100008B10B206BE6BBF1020F6FD228480468AA
:102720003CB100202070FEF740F8C10703D0032021
:102730005DE60C205BE6400701D50A2057E605AAB6
:1027400001210E98FEF743F8002857D10598B0F5FF
:10275000FA6F53D34FF0FA61884200D90591BBF16B
:10276000000F07D000270598C21B4FF400708301AB
:10277000059204E03F27F6E74000984201D8A842BE
:10278000FAD1A84200D175B900200E4B039001E0A8
:10279000401C039053F820509542F9D80948039AF9
:1027A0002C3030F81250B5F5007F01D24FF400758F
:1027B000680A05991090B1FBF0F005E088C0072089
:1027C0000CC0072088410000012640F6F5718842C0
:1027D00000D302264FF6F571884201D3032603E0A9
:1027E000012E0CD0022E12D040F2072101EB800006
:1027F0004FEA5028CBF1210A002011E03EE000EB27
:10280000400040F20221401C01EB500003E040F286
:10281000032101EB40004FEA50280BF1010A202070
:10282000814607EB0A0505EB08004844009003AA1F
:1028300003210E98FDF7CBFF00BB039900980844D5
:10284000401E491E884300990390411A0598884408
:10285000A0EB0A02A2EB08021099A2EB0902B2FB5C
:10286000F1F10A91022E02D0032E03D008E040F6C7
:10287000F57201E04FF6F572914201D20E20B6E5F5
:10288000BBF1000F01D0F0204CE007EB000B04F18E
:1028900034004FF400720021089000F0A0FA04F513
:1028A000F970802101700121417081700021FA4B83
:1028B000C1709B4508D29B12BBFBF3F2C2713F2350
:1028C00043EA9202827102E0FF228271C271FE220B
:1028D0004271032E23D0059AB2F5803F01D2042223
:1028E00000E0062202713F22027241728172C172BF
:1028F000059901730A0A42730A0C8273090EC173A7
:10290000552180F84010AA2180F8411001230022AF
:1029100008990E98FDF7F6FF00287CD101E00C2203
:10292000E0E7F820834634344FF40072002120465B
:1029300000F055FAEB202070FE2060709020A0700F
:102940000021E170E172022020731098607384F816
:102950000EA04FEA1A20E073012020744FEA0910FC
:102960006074000AA0740598B0F5803F03D2E0744B
:10297000000A20750AE084F82000020A84F8212069
:10298000020C84F82220000E84F8230084F815B08D
:102990003F2020768A4608466176FF21A176E076C0
:1029A0002777380A6077380CA077380EE07700F088
:1029B00003FB29210390032E19D084F82700020A73
:1029C00084F82820020C84F82920000E84F82A00BC
:1029D00084F816804FEA1820E075802084F82400DF
:1029E00084F826101322ADA104F12B0036E084F800
:1029F0004300020A84F84420020C84F84520000EAB
:102A000084F8460084F824804FEA182084F82500D2
:102A10004FEA184000E0ADE084F826004FEA186065
:102A200084F82700022084F82C0084F82DA084F874
:102A30002EA084F82FA0012284F8302084F831A041
:102A4000062284F8322084F833A0802084F84000E5
:102A500084F84210132296A104F1470000F0B7F960
:102A6000552084F8FE01AA2084F8FF0101233A468C
:102A700021460E98FDF746FF00287BD1032E05D195
:102A80000123BA1D21460E98FDF73CFF4FF0000AC6
:102A90004FF400720021204600F0A1F9032E13D05C
:102AA000012E0FD06FF0FF0040EA0B000390207062
:102AB0000398000A60700398000CA0700398000E41
:102AC000E07010E07F48EFE7F8202070FF20607092
:102AD000A070E07020716071A071E071207260726E
:102AE000A0720F20E0722A466D1C012321460E9829
:102AF000FDF708FFF0BB4FF400720021204600F004
:102B00006EF9012009E02A466D1C012321460E982A
:102B1000FDF7F8FE70BB0398401C03904045F2D3CC
:102B20000AF10100C0B25FEA000AB1D0032E0AD058
:102B3000484680462A466D1C012321460E98FDF723
:102B4000E1FEB8B901E01098F3E7A8F10100C0B2C6
:102B50005FEA0008EED1032E39D1552084F8FE013A
:102B6000AA2084F8FF015220207060706120A070BC
:102B7000412100E033E0E170722284F8E42184F81E
:102B8000E52184F8E61184F8E7010A980123401E44
:102B900084F8E801010A84F8E911010C84F8EA11CB
:102BA000000E84F8EB01FF2084F8EC0184F8ED01BD
:102BB00084F8EE0184F8EF017A1C21460E98FDF7A7
:102BC000A1FE0123FA1D21460E98FDF79BFE00226F
:102BD00011460E98FDF7FBFD00283FF49BAD012048
:102BE00005E42DE9F84300259046064604464F1EAD
:102BF0000DE06B46012221464046FEF7CBFF0098D0
:102C0000012806D114F8010B6D1C0A2801D0BD4221
:102C1000EFDB0020207015B13046BDE8F8830020BE
:102C2000FBE77CB50D0004460AD08DF804406B46E6
:102C3000012201A92846FFF766F8009808B120464E
:102C40007CBD4FF0FF307CBD70B50E4604460025BC
:102C500006E03146FFF7E5FF401C06D0641C6D1C02
:102C600020780028F5D1284670BD4FF0FF3070BDA8
:102C70000FB42DE9FF47814600200EAC0546804683
:102C80006E460D9F17F8012B0D97002A47D0252A75
:102C90001AD04946104647E00004FB004E4F204E34
:102CA000414D452020202046415420202020200056
:102CB0004E4F204E414D4520202020464154333276
:102CC0002020200000FFFF00002217F8011B134600
:102CD0000D9730290DD117F8011B01220D9708E03F
:102CE00003EB83030D9F01EB4303303B17F8011BFC
:102CF0000D97A1F13007092FF2D96C2905D10D9F4D
:102D000042F0020217F8011B0D97732908D06329BE
:102D100008D064290ED075290CD058290CD04EE06B
:102D200001CC45E001CC4946FFF77BFF411C42D076
:102D3000012040E00A2700E01027900703D501CCCE
:102D4000642903D007E001CC642904D1002802DA09
:102D5000404242F004020F218DF80F80B0FBF7FCD7
:102D600007FB1C0C0CF1300C0CF0FF0CBCF1390F04
:102D700003D90CF1070C0CF0FF0CB0FBF7F0491E67
:102D800006F801C006D00028E8D1500702D52D2052
:102D9000491E7054C3F10F0006E0D30701D0302361
:102DA00000E02023491E735409B18142F5DC7018FC
:102DB0004946FFF749FF0544411C7FF462AF411CBF
:102DC00000D0284604B0BDE8F0075DF814FB03E02E
:102DD00011F8013B00F8013B521EF9D27047C9B20D
:102DE00002E000BF00F8011B521EFBD2704700E05A
:102DF000401C02780AB18A42FAD1D0B2704701462B
:102E000000200B22430803EBC01011F8013B521EB7
:102E10001844C0B2F6D1704710B520B1027812B193
:102E2000C2888A4201D0092010BD4078FDF73AFDE2
:102E3000C007F9D0032010BD802804D3124A51B135
:102E4000FF2801D90020704702EB4000A0F5805018
:102E5000B0F8000F704732F81130834203D0491C9C
:102E600089B28029F7D38031C8B270470021074B5F
:102E700000E0491C33F81120002A04D08242F8D126
:102E8000034830F811007047CA410000CA420000F0
:102E9000AA44000010B504460168FCA000F079FCCB
:102EA000FDA000F076FCFEA0616800F072FCFDA0C1
:102EB00000F06FFCFAA0A16800F06BFCFAA000F033
:102EC00068FCF7A0E16800F064FCFAA000F061FC87
:102ED000206900F05EFCF8A000F05BFC606900F087
:102EE00058FCF5A000F055FCA06900F052FCF2A0DF
:102EF00000F04FFCE06900F04CFCEFA000F049FC52
:102F0000206A00F046FCEDA000F043FC606A00F08F
:102F100040FCEFA000F03DFCE1A0A16A00F039FC0C
:102F2000E0A000F036FCDEA0E16A00F032FCEBA08D
:102F300000F02FFC206B00F02CFCEBA000F029FC33
:102F4000D7A0616B00F025FCEAA000F022FC284627
:102F500010BDE948C168491CC160416A4A1C42620F
:102F60000022B1F5FA7F0FD34262E449836A2BB1A4
:102F70008B6943F480038B61002104E0CB6943F447
:102F80008003CB6101218162C16A4B1CC3620A29A3
:102F900000D3C2627047DA49800108607047D9489F
:102FA000416841F400114160D748D0F8A81141F0C0
:102FB0008071C0F8A81170470EB56846FDF751FD45
:102FC000BDF80A009DF808104006A0F1F04040EA64
:102FD00041509DF8031040EA01409DF8021040EA7C
:102FE000C1209DF8011040EA41109DF8001040EA10
:102FF00051000EBD70B5C04C2078002815D1C349D2
:103000004FF4806504F138032A4601F63420FEF7B8
:10301000C1FDBF49E07104F138032A4601F2346072
:10302000FEF7B8FDE0710120207070BDB64810B504
:103030000F21C0F84011B34B4FF0AA621A61C0F8DB
:103040004811C0F84C110121122000F044FA02216D
:10305000132000F040FA0321142000F03CFA042170
:10306000152000F038FA122000F02AFA132000F0A0
:1030700027FA142000F024FABDE81040152000F0D3
:103080001FBA2DE9F041A0480127C0F840719F4DBB
:10309000994C383D0026286880B9607840B14FF0DF
:1030A000E0210220C1F8800166709AA0286321E027
:1030B000012000F005FA677098A0286328680128AD
:1030C00018D1216B012297480931FEF7C0FCE0714D
:1030D0009448C0686063206B2E60093068624FF4CA
:1030E000806529468948E66100F061FC29468848E8
:1030F00000F05DFCE07818B1A770E670BDE8F081E3
:10310000A670FBE780490420C1F840017F480122F6
:1031100038380021036813B1012B02D002E00260AD
:1031200000E001607448037913B182700171704747
:103130008170704774490220C1F8400173496E489C
:1031400038390A68012A06D1026B526A02634A6B57
:1031500042B1521E4A63427900212AB10122827093
:10316000417170470522F5E7817070476649082074
:10317000C1F840016549002238395F480B68012BCE
:1031800007D1036B1B6A03634B6B052B07D05B1CDA
:103190004B63817929B101218170827170474A6343
:1031A000F7E7827070470FB400206A4611184B7A17
:1031B0002E2B08D18B7A772B05D1CB7A612B02D1BC
:1031C000097B762905D0401C0A28EFDB002004B0DB
:1031D00070470120FBE74C4810B550F8C41F41F080
:1031E000020140F8E41B016821F0180101604FF072
:1031F0004024002020671120E0601620A061606953
:1032000040F003006061606840F0020060600521EA
:10321000012000F060F9012000F052F90120606007
:1032200010BD2DE9F047344C86B001266672A672B7
:1032300000F061F94FF4614000F0E4F9FFF7AFFEF0
:10324000FFF7C9FFFFF7F2FE3748C0682062002091
:10325000FDF7ABFA207235490020FEF7EAFBE0717A
:1032600033A13448FEF73CFF324DE071343D05F1A7
:10327000640730492F482431FEF75BFFE07118B135
:1032800006B0C0B2BDE8F08756E000005363726537
:10329000656E3A25640000003B74696D653A000074
:1032A000256400003A0000003B6261747465727925
:1032B0003A0000003B0000002C0000003B637572E8
:1032C00072656E746C79706C6179696E673A000032
:1032D0003B6475726174696F6E3A00003B706C619B
:1032E00079696E673A0000003B637572736F7250C4
:1032F0006F733A003B23000010C0072000C0092074
:1033000000C0084000C0024000C00F40380000105C
:10331000380400105061757365640000506C617969
:10332000696E67006C0A0010900C001038080010DD
:103330005C000000B40E00108E48407A50B305F1D6
:1033400068000FC88DE80F0005F158000FC8FFF79F
:103350002AFF00288DD0E06B4FF014020028394678
:1033600068460CD000F0F1FA05F15801A0690EC9C9
:1033700000F0A8FAA061E06B401CE06379E700F080
:10338000E4FA05F15801A0690EC900F09BFAA061AA
:103390006061F0E7D4E90510002501624862764AD1
:1033A0002A204FF00F0A2163C2E902A04FF0020960
:1033B000C2E900592B460846E76B07E002EB830899
:1033C00000F1090CC8F810C0006A5B1CBB42F5DBB9
:1033D0006AA0D0616DA01062086A006A206309309B
:1033E00050620420C2E90A0AAFF2D000C2E90C0917
:1033F0006148FFF74FFD216B012268480931FEF754
:1034000026FBE07165480021C06860630846FFF74D
:10341000F1FD4FF48067A07A68B1607A394690B1C7
:103420005F4800F0C4FA5F4B5D493A465B48FEF7DF
:10343000B1FBE071A572A0780028ECD14E48FFF7EF
:1034400029FDA670E7E74C48383000F0B0FA4A4949
:10345000544B3A463831E9E730B44FF04020016828
:1034600041F0010101604F483838C269416B8A421E
:1034700018D20146437A4C4C096913B13E4D383598
:1034800000E0474D6D5CAD012560521C491CC261D6
:103490000161B1F5806F0FDB847A2CB1521E491E99
:1034A000C261016130BC70470021016183F00101FC
:1034B000417201218172F5E730BC3C48FEF73EBD08
:1034C00000F01F02012191404009800000F1E0203E
:1034D000C0F800117047C906090E002806DA00F08E
:1034E0000F0000F1E02080F8141D704700F1E0208B
:1034F00080F8001470473EB5FCF736FE2C484FF4B8
:103500007A7100240068B0FBF1F0401EB0F1807FBA
:103510000CD220F07F404FF0E025401E68611F2153
:10352000601EFFF7D8FFAC6107202861FDF7C3FAE2
:103530008DF800408DF8014001208DF802408DF893
:1035400003008DF8080040F2DA708DF80440ADF801
:103550000A00ADF806406846FDF78AFAFDF782FAE0
:103560001448016A41F030410162016841F4800170
:1035700001603EBDD80E0010000000106775707429
:10358000612E636875746979610000006D61646122
:103590007263686F642E7761760000006C0A001019
:1035A0003804001048C0072000C00840900C0010EC
:1035B00000C0072000C00920BC4AD2F8A821C2F3ED
:1035C0008113BB4A126833B1012B06D0022B06D0FF
:1035D000032B07D105E0910804E0114602E05108F1
:1035E00000E0D108B34BA0F516629A4201D8000161
:1035F00001E04FF41630B1FBF0F0AF490870000A5B
:1036000008717047AD4910B50A6822F0F0020A60EF
:103610000A6842F050020A60A74C072121728321F8
:103620002173FFF7C9FF207B20F08000207310BDBD
:10363000A148017DC907FCD0007870479E490A7DEA
:103640009206FCD50870704700B5034602E05B1C8B
:10365000FFF7F4FF18780028F9D100BD10B5034634
:10366000FFF7E6FF0446FFF7E9FF0D2C04D00A2C14
:1036700002D003F8014BF3E70020187010BD7EB5AF
:1036800000231A466C4620B10A251AE0E2545B1C5E
:10369000DBB28B4221D20A2BF8D31EE050B1B0FB33
:1036A000F5F6764206EB860600EB4606B0FBF5F033
:1036B000E65404E0FF2910D00A290ED8E2545B1C1E
:1036C000DBB28B42EAD308E0E01810F8010C30308E
:1036D000C0B2FFF7B3FF5B1EDBB2002BF4D17EBD9F
:1036E0003EB500231A466C4618B114E0E2545B1C48
:1036F000DBB28B421FD20A2BF8D31CE020B100F0C2
:103700000F05E554000904E0FF2914D00A2912D856
:10371000E2545B1CDBB28B42F0D30CE0E01810F8F3
:10372000010C092801D9373000E03030C0B2FFF772
:1037300085FF5B1EDBB2002BF0D13EBD30B50446E9
:10374000012309E04D1E03FA05F0204000D00120BE
:103750003030FFF773FFE9B20029F3D130BD70B507
:10376000044600F049FB0546FF21FFF788FF2E20A5
:10377000FFF764FF284600F05FFB214600F03CFCA9
:103780004F4900F06DFB00F037FBBDE87040FF21B2
:1037900075E70FB470B505AD049C41E025283CD118
:1037A00014F8010FA0F1300109290ED85FF00003D1
:1037B00003EB830100EB41003038C3B214F8010F72
:1037C000A0F130010929F3D900E0FF2358284DD09A
:1037D00010DC442835D006DC25281ED0422850D0E5
:1037E00043281CD117E0462852D053285AD05528D8
:1037F00015D132E066284BD006DC62283BD0632826
:1038000009D064280BD111E073284BD0752820D043
:10381000782804D126E015F8040BFFF70FFF641C8D
:1038200020780028BAD170BC5DF814FB35F8040B81
:1038300006B2002E02DA704206B206E019463046A1
:103840000DE040CD002EF9DA76422D20FFF7F6FE8E
:10385000F4E735F8040B80B200E001CD1946FFF71C
:103860000EFFDCE735F8040B80B200E001CD19460D
:10387000FFF736FFD3E735F8040B80B202E01023E0
:1038800002E001CDFF2BFAD01946FFF757FFC6E73C
:10389000ED1D25F00705F5E8020100F0CBF9FFF773
:1038A0005EFFBCE701CDFFF7CFFEB8E700C00F40D9
:1038B00000C00720A0B8010000C0004000C00240C6
:1038C000002474490FB470B50546282000F00EF8A6
:1038D0000446202205A900F038F80020C4E90805B4
:1038E00005B12C62204670BC5DF814FB70B506462D
:1038F000FCF7FEFC056806F10B0020F00704B4425B
:103900009CBF002070BD2B466A68BAB11068A04207
:1039100010D304F1080188423CBF5068586007D3B7
:103920005168101941601168091B016058601460EA
:10393000101D70BD13465268002AE7D12146284663
:1039400000F05EF80028DED170BD10B5203AC0F05E
:103950000B80B1E81850203AA0E81850B1E8185090
:10396000A0E81850BFF4F5AF5FEA027C24BFB1E8CD
:103970001850A0E8185044BF18C918C0BDE810403E
:103980005FEA827C24BF51F8043B40F8043B08BF47
:103990007047D20728BF31F8023B48BF11F8012B0E
:1039A00028BF20F8023B48BF00F8012B70474FF0BA
:1039B000000200B5134694469646203922BFA0E87F
:1039C0000C50A0E80C50B1F12001BFF4F7AF09078B
:1039D00028BFA0E80C5048BF0CC05DF804EB89007C
:1039E00028BF40F8042B08BF704748BF20F8022BBF
:1039F00011F0804F18BF00F8012B704770477047D7
:103A000038B504460A4600206946AFF30080002816
:103A100008BF38BD02460099204600F067F8012033
:103A200038BD012000F07CB8F8B5AFF30080054642
:103A300000200C46102000BF0646A819A0420DD950
:103A4000324669460020AFF30080070008BF00F04F
:103A500067F80098A04218BF0546C419FCF748FC57
:103A600005600746F01D20F007004619284600F0C3
:103A70000AF8B44208BFF8BDA21B31463868BDE859
:103A8000F84000F033B800210160C0E90110704730
:103A90001020704770B50446051FFCF729FC00682C
:103AA000002C14BF446870BD002C18BFAC423CBF52
:103AB00020466468F8D301680A18AA4218BF456016
:103AC00003D12A6805461144016028684119A142C2
:103AD0001CBF6C6070BD6168696021680844286023
:103AE00070BD00000048704788C207200346406848
:103AF0008C46002818BF88423CBF03464068F8D374
:103B000018681844884207D00CF1030020F0070021
:103B1000001D411A521A0146081D0A60FFF7BABF7C
:103B200010B500F039F8BDE8104000F02FB870472C
:103B30007546FFF7D7FFAE4605006946534620F0AD
:103B40000700854618B020B5FCF7BEFBBDE8204055
:103B50004FF000064FF000074FF000084FF0000B49
:103B600021F00701AC46ACE8C009ACE8C009ACE8FC
:103B7000C009ACE8C0098D46704710B50446AFF3E4
:103B800000802046BDE81040FCF7E7BA002801D0CD
:103B900000F02AB87047000010B5012805D00021B8
:103BA00003A000F027F8012010BD09A1F8E70000EC
:103BB00053494752544D454D3A204F7574206F6616
:103BC0002068656170206D656D6F7279000000007E
:103BD0003A2048656170206D656D6F727920636F62
:103BE000727275707465640001491820ABBEFEE7FF
:103BF0002600020070B505460C460A2000E06D1C48
:103C000000F011F835B128780028F8D102E0641CE2
:103C100000F009F814B120780028F8D1BDE8704010
:103C20000A20AFF3008008B569468DF80000032034
:103C3000ABBE08BD21F00042A2F16052B2F5801F78
:103C400001F0004328BFD2F17F6C0BD95FEA001C62
:103C500043EAC20242EB507018BF704728BF20F001
:103C600001007047B2F5801FBCBF184670474FEA8D
:103C7000410C1CF5001F02D2084600F0B8B970B51F
:103C800000F009F800000089FFF7F6BF4FF0004090
:103C9000A0F5800070470EF1020E2EF0030E5EF8C4
:103CA000046B364205D4012A43EB030515F5001FCA
:103CB00012D8012841EB010C1CF5001F0CD80ED1C5
:103CC0004FEAD17C15F5001F0CEB4C0C0CF1020CEB
:103CD00008BF4CEBD37C04E04FF0080C01E04FEA46
:103CE000D37C0CEB4C0526FA05F606F00706B6F178
:103CF000040C06D20EEB860CBDE870404CF0010CB3
:103D00006047DFE80CF0090B02024FF000414FF072
:103D10000000A1F5002170BD19461046012851EBA5
:103D2000010418BFD4F5001484BF002001F0004145
:103D300070BD000090EA010F48BF81F0004100F122
:103D40006C81421A3CBF801A89184FEAD0524FF05A
:103D50007F4C1CEA410FA2EBD15318BF9CEA026FC3
:103D600000F03B804FF0004C4CEA00204CEA01216F
:103D700021FA03FC10EB0C0C1ED202F1FF325FEAB9
:103D80001C2040EBC25038BF70471CF07F0F4FEA39
:103D9000400C18BFBCF17F4F38BF7047C3F1200300
:103DA000994008BF20F00100BCF17F4F38BF704739
:103DB000A0F1C04000F01BB94FEA3C00000A40EB04
:103DC000C25028BF1CF0FF0F4FEA400CE6D018BFCE
:103DD000BCF17F4F38BF7047EAE79CEA026F05D01D
:103DE00010EA5C0F08BF00F00040704710B500F00B
:103DF000B8F800BF64FBBE3EC10DD1F19E0206DBE8
:103E00004FEA002343F0004323FA02F070470042D8
:103E100007D54FEA4001B1F1FE4F02D24FF000004A
:103E2000704710B500F09DF849922480002070473B
:103E30006FEA200070470000B0FA80F310FA03F236
:103E4000C3F19D030AD0D90501EB1220530638BFF8
:103E5000704700F1010008BF20F00100704700002A
:103E60004FF47F0C1CEAD0121EBF1CEAD11392EA59
:103E70000C0F93EA0C0F00F0478090EA010F48BF47
:103E800042F480724FF0004C4CEA00204CEA0121D1
:103E900002EB0302A0FB0113A2F50002002918BFE8
:103EA00043F001035B0028BF4FEA330342EB224299
:103EB0005FEA132C4CEBC2502EBFBCEB436FB2F544
:103EC0007C0F70474FEA036CBCF1004F08BF20F035
:103ED0000100B2F57C0F38BF70470BD582F0FF02AE
:103EE00012F5803FC8BF704700F1C040D8BF00F056
:103EF0000040704700F5000C5FEA4C0C48BF70476B
:103F0000B0F1C04000F073B890EA010F0CEAD11391
:103F100048BF42F48072624538BF634504D280EAEC
:103F2000010000F00040704710B500F01AF800BF23
:103F30008900013E00F007B800F009B85FEA410CC3
:103F40005FEA1C6C08D080EA010000F050B85FEA1C
:103F5000400C5FEA1C6CF6D14FF00040A0F58000E9
:103F600070470EF1020E2EF0030E5EF8044B244251
:103F700004D44FEA4102B2F17F4F11D84FEA400317
:103F8000B3F17F4F0CD80ED14FEAD07CB2F17F4F06
:103F90000CEB4C0C0CF1020C08BF4CEBD17C04E098
:103FA0004FF0080C01E04FEAD17C0CEB4C0324FAF3
:103FB00003F404F00704B4F1040C06D20EEB840CF5
:103FC000BDE810404CF0010C6047DFE80CF007083A
:103FD00002024FF00040A0F5800010BD08464200EC
:103FE00018BFD2F1807288BF00F0004010BDFF21E1
:103FF00041EAD050C005704780F0004090EA010FC0
:104000007FF59FAE81F0004100F007B890EA010F04
:1040100048BF81F000413FF594AE421A04D882F0C7
:104020000042A0EB020011444FEAD0524FF07F4C07
:104030001CEA410FA2EBD15318BF9CEA026F4AD091
:104040004FF0004C4CEA00204CEA012121FA03FC1D
:10405000B0EB0C0C0FD412F0FE0F36D05FEA4C0020
:104060001DD5001240EBC25038BF70471CF03F0F07
:1040700018BF70470BE0A2F101025FEA1C2040EB81
:10408000C25038BF70471CF07F0F18BF7047C3F194
:104090002003994014BF401E20F0010070478008A3
:1040A0004FEA122308BF7047B0FA80FCA2EB0C0263
:1040B000CCF1280C60FA0CF093EA122F04BF00EB4D
:1040C000C25070474FEAC3707047130A5FEADC10B2
:1040D00008BF7047F6E79CEA026F04D010EA5C0F55
:1040E00008BF0020704710B5FFF73BFF40DFF63EEA
:1040F00081F000407047000001030507090E10120F
:104100001416181C1E809A90B68EB78F80D2D3D406
:10411000D8D7DE8E8F909292E299E3EAEB59999A82
:104120009D9C9D9E9FB5D6E0E9A5A5A6A7A8A9AA96
:10413000ABAC21AEAFB0B1B2B3B4B5B6B7B8B9BAE3
:10414000BBBCBDBEBFC0C1C2C3C4C5C7C7C8C9CA46
:10415000CBCCCDCECFD0D1D2D3D4D5D6D7D8D9DA37
:10416000DBDCDDDEDFE0E1E2E3E5E5E6E7E7E9EA27
:10417000EBEDEDEEEFF0F1F2F3F4F5F6F7F8F9FA16
:10418000FBFCFDFEFF00000000401F0000A00F0030
:1041900000D0070000E8030000F4010000FA00006E
:1041A000007D0000803E0000401F0000A00F0000C6
:1041B00000000000008000400020001000080040C7
:1041C00000200010000800040002C700FC00E90005
:1041D000E200E400E000E500E700EA00EB00E800B0
:1041E000EF00EE00EC00C400C500C900E600C60008
:1041F000F400F600F200FB00F900FF00D600DC003E
:10420000F800A300D800D7009201E100ED00F30010
:10421000FA00F100D100AA00BA00BF00AE00AC0065
:10422000BD00BC00A100AB00BB00912592259325E9
:1042300002252425C100C200C000A9006325512524
:1042400057255D25A200A5001025142534252C2511
:104250001C2500253C25E300C3005A25542569256B
:104260006625602550256C25A400F000D000CA000A
:10427000CB00C8003101CD00CE00CF0018250C25A1
:1042800088258425A600CC008025D300DF00D4003B
:10429000D200F500D500B500FE00DE00DA00DB003C
:1042A000D900FD00DD00AF00B400AD00B100172063
:1042B000BE00B600A700F700B800B000A800B70025
:1042C000B900B300B200A025A00061006200630045
:1042D0006400650066006700680069006A006B00A2
:1042E0006C006D006E006F00700071007200730052
:1042F0007400750076007700780079007A00A100DC
:10430000A200A300A500AC00AF00E000E100E200C5
:10431000E300E400E500E600E700E800E900EA0069
:10432000EB00EC00ED00EE00EF00F000F100F20019
:10433000F300F400F500F600F800F900FA00FB00C5
:10434000FC00FD00FE00FF00010103010501070163
:1043500009010B010D010F011101130115011701D5
:1043600019011B011D011F01210123012501270145
:1043700029012B012D012F013101330135013701B5
:104380003A013C013E01400142014401460148011D
:104390004B014D014F015101530155015701590185
:1043A0005B015D015F0161016301650167016901F5
:1043B0006B016D016F0171017301750177017A0164
:1043C0007C017E019201B103B203B303B403B503D0
:1043D000B603B703B803B903BA03BB03BC03BD03F9
:1043E000BE03BF03C003C103C303C403C503C603A5
:1043F000C703C803C903CA033004310432043304B9
:104400003404350436043704380439043A043B04D0
:104410003C043D043E043F04400441044204430480
:104420004404450446044704480449044A044B0430
:104430004C044D044E044F045104520453045404DC
:10444000550456045704580459045A045B045C0488
:104450005E045F0470217121722173217421752122
:1044600076217721782179217A217B217C217D2178
:104470007E217F2141FF42FF43FF44FF45FF46FF6E
:1044800047FF48FF49FF4AFF4BFF4CFF4DFF4EFFE0
:104490004FFF50FF51FF52FF53FF54FF55FF56FF90
:1044A00057FF58FF59FF5AFF0000410042004300E8
:1044B0004400450046004700480049004A004B00C0
:1044C0004C004D004E004F00500051005200530070
:1044D0005400550056005700580059005A0021005A
:1044E000E0FFE1FFE5FFE2FFE3FFC000C100C20023
:1044F000C300C400C500C600C700C800C900CA0088
:10450000CB00CC00CD00CE00CF00D000D100D20037
:10451000D300D400D500D600D800D900DA00DB00E3
:10452000DC00DD00DE00780100010201040106016B
:1045300008010A010C010E011001120114011601FB
:1045400018011A011C011E0120012201240126016B
:1045500028012A012C012E013001320134013601DB
:1045600039013B013D013F01410143014501470143
:104570004A014C014E0150015201540156015801AB
:104580005A015C015E01600162016401660168011B
:104590006A016C016E01700172017401760179018A
:1045A0007B017D0191019103920393039403950391
:1045B00096039703980399039A039B039C039D0317
:1045C0009E039F03A003A103A303A403A503A603C3
:1045D000A703A803A903AA031004110412041304D7
:1045E0001404150416041704180419041A041B04EF
:1045F0001C041D041E041F0420042104220423049F
:104600002404250426042704280429042A042B044E
:104610002C042D042E042F040104020403040404BA
:10462000050406040704080409040A040B040C0426
:104630000E040F0460216121622163216421652140
:1046400066216721682169216A216B216C216D2116
:104650006E216F2121FF22FF23FF24FF25FF26FF6C
:1046600027FF28FF29FF2AFF2BFF2CFF2DFF2EFFFE
:104670002FFF30FF31FF32FF33FF34FF35FF36FFAE
:1046800037FF38FF39FF3AFF00000000BC4600004A
:1046900000C007205000000000010000BC460000E0
:1046A00000000010F80E00001C0100000C47000084
:1046B00050C00720980800001C01000000093D00C0
:1046C00001000000000000000000000000000101E7
:1046D00001010100000000000000000000000000D7
:1046E00000000000000000000000000000000000CA
:1046F00000000000000000000000000000000000BA
:0C470000000000000000000000000000AD
:04000005000000C532
:00000001FF
